{
  "_format": "hh-sol-artifact-1",
  "contractName": "PlonkVerifier",
  "sourceName": "contracts/verifier.sol",
  "abi": [
    {
      "inputs": [
        {
          "internalType": "bytes",
          "name": "proof",
          "type": "bytes"
        },
        {
          "internalType": "uint256[]",
          "name": "pubSignals",
          "type": "uint256[]"
        }
      ],
      "name": "verifyProof",
      "outputs": [
        {
          "internalType": "bool",
          "name": "",
          "type": "bool"
        }
      ],
      "stateMutability": "view",
      "type": "function"
    }
  ],
  "bytecode": "0x608060405234801561001057600080fd5b50611e24806100206000396000f3fe608060405234801561001057600080fd5b506004361061002b5760003560e01c80631e8e1e1314610030575b600080fd5b61004a60048036038101906100459190611d40565b610060565b6040516100579190611dd3565b60405180910390f35b6000611a7d565b600080600184846000805b821561009c5782840591508482028603905084955080945082820284039050829350809250610072565b60018411156100aa57600080fd5b60008612156100b95788860195505b85965050505050505092915050565b60405181602084028301815160208301925060005b82841015610120578185527f30644e72e131a029b85045b68181585d2833e84879b9709143e1f593f00000018451830991506020850194506020840193506100dd565b61014a7f30644e72e131a029b85045b68181585d2833e84879b9709143e1f593f000000183610067565b91506020850394506020840393508592505b828411156101c6577f30644e72e131a029b85045b68181585d2833e84879b9709143e1f593f00000018551830990507f30644e72e131a029b85045b68181585d2833e84879b9709143e1f593f000000184518309915080845260208503945060208403935061015c565b81845250505050505050565b7f30644e72e131a029b85045b68181585d2833e84879b9709143e1f593f00000018110610203576000805260206000f35b50565b61032081511461021a576000805260206000f35b6102286102608201516101d2565b6102366102808201516101d2565b6102446102a08201516101d2565b6102526102c08201516101d2565b6102606102e08201516101d2565b61026e6103008201516101d2565b61027c6103208201516101d2565b50565b60008060208501516103008501526040850151610320850152606085015161034085015260208301516103608501526020800183015161038085015260406020018301516103a085015260606020018301516103c085015260806020018301516103e085015260a06020018301516104008501527f30644e72e131a029b85045b68181585d2833e84879b9709143e1f593f00000016101206103008601200690508060208501527f30644e72e131a029b85045b68181585d2833e84879b9709143e1f593f00000016020808601200660408501527f30644e72e131a029b85045b68181585d2833e84879b9709143e1f593f0000001604060e08501200660008501527f30644e72e131a029b85045b68181585d2833e84879b9709143e1f593f000000160c06101208501200691508160608501527f30644e72e131a029b85045b68181585d2833e84879b9709143e1f593f000000182820960a08501527f30644e72e131a029b85045b68181585d2833e84879b9709143e1f593f000000182830991507f30644e72e131a029b85045b68181585d2833e84879b9709143e1f593f000000182830991507f30644e72e131a029b85045b68181585d2833e84879b9709143e1f593f000000182830991508160808501527f30644e72e131a029b85045b68181585d2833e84879b9709143e1f593f000000180600184030106915081610260850152816102808501527f30644e72e131a029b85045b68181585d2833e84879b9709143e1f593f000000160e0610260850120068060c08601527f30644e72e131a029b85045b68181585d2833e84879b9709143e1f593f000000181820992508260e08601527f30644e72e131a029b85045b68181585d2833e84879b9709143e1f593f00000018184099250826101008601527f30644e72e131a029b85045b68181585d2833e84879b9709143e1f593f00000018184099250826101208601527f30644e72e131a029b85045b68181585d2833e84879b9709143e1f593f00000018184099250826101408601527f30644e72e131a029b85045b68181585d2833e84879b9709143e1f593f00000018184099250826101608601527f30644e72e131a029b85045b68181585d2833e84879b9709143e1f593f000000160806101e086012006610180860152505050505050565b60017f30644e72e131a029b85045b68181585d2833e84879b9709143e1f593f0000001807f30644e72e131a029b85045b68181585d2833e84879b9709143e1f593f00000018360608601510301066008096102a08301527f30644e72e131a029b85045b68181585d2833e84879b9709143e1f593f00000017f2b337de1c8c14f22ec9b9e2f96afef3652627366f8170a0a948dad4ac1bd5e80820990507f30644e72e131a029b85045b68181585d2833e84879b9709143e1f593f0000001807f30644e72e131a029b85045b68181585d2833e84879b9709143e1f593f00000018360608601510301066008096102c08301527f30644e72e131a029b85045b68181585d2833e84879b9709143e1f593f00000017f2b337de1c8c14f22ec9b9e2f96afef3652627366f8170a0a948dad4ac1bd5e80820990507f30644e72e131a029b85045b68181585d2833e84879b9709143e1f593f0000001807f30644e72e131a029b85045b68181585d2833e84879b9709143e1f593f00000018360608601510301066008096102e0830152610770600461028084016100c8565b610260820151600191507f30644e72e131a029b85045b68181585d2833e84879b9709143e1f593f0000001816102a0850151096102a08401527f30644e72e131a029b85045b68181585d2833e84879b9709143e1f593f00000017f2b337de1c8c14f22ec9b9e2f96afef3652627366f8170a0a948dad4ac1bd5e80830991507f30644e72e131a029b85045b68181585d2833e84879b9709143e1f593f000000180826102c08601510983096102c08401527f30644e72e131a029b85045b68181585d2833e84879b9709143e1f593f00000017f2b337de1c8c14f22ec9b9e2f96afef3652627366f8170a0a948dad4ac1bd5e80830991507f30644e72e131a029b85045b68181585d2833e84879b9709143e1f593f000000180826102e08601510983096102e0840152505050565b60007f30644e72e131a029b85045b68181585d2833e84879b9709143e1f593f0000001807f30644e72e131a029b85045b68181585d2833e84879b9709143e1f593f000000160208601516102a0860151098303010690507f30644e72e131a029b85045b68181585d2833e84879b9709143e1f593f0000001807f30644e72e131a029b85045b68181585d2833e84879b9709143e1f593f000000160408601516102c0860151098303010690507f30644e72e131a029b85045b68181585d2833e84879b9709143e1f593f0000001807f30644e72e131a029b85045b68181585d2833e84879b9709143e1f593f000000160608601516102e086015109830301069050806101a0830152505050565b60008060007f30644e72e131a029b85045b68181585d2833e84879b9709143e1f593f00000016101a08601516103208601510892507f30644e72e131a029b85045b68181585d2833e84879b9709143e1f593f000000160208601516102c08601510991507f30644e72e131a029b85045b68181585d2833e84879b9709143e1f593f0000001610260850151830891507f30644e72e131a029b85045b68181585d2833e84879b9709143e1f593f00000016040860151830891507f30644e72e131a029b85045b68181585d2833e84879b9709143e1f593f000000160208601516102e08601510990507f30644e72e131a029b85045b68181585d2833e84879b9709143e1f593f0000001610280850151820890507f30644e72e131a029b85045b68181585d2833e84879b9709143e1f593f00000016040860151820890507f30644e72e131a029b85045b68181585d2833e84879b9709143e1f593f000000181830991507f30644e72e131a029b85045b68181585d2833e84879b9709143e1f593f000000160408601516102a08601510890507f30644e72e131a029b85045b68181585d2833e84879b9709143e1f593f000000181830991507f30644e72e131a029b85045b68181585d2833e84879b9709143e1f593f0000001610300850151830991507f30644e72e131a029b85045b68181585d2833e84879b9709143e1f593f00000016000860151830991507f30644e72e131a029b85045b68181585d2833e84879b9709143e1f593f000000160008601516102a08701510990507f30644e72e131a029b85045b68181585d2833e84879b9709143e1f593f00000016000860151820990507f30644e72e131a029b85045b68181585d2833e84879b9709143e1f593f000000181830891507f30644e72e131a029b85045b68181585d2833e84879b9709143e1f593f0000001827f30644e72e131a029b85045b68181585d2833e84879b9709143e1f593f00000018501030692507f30644e72e131a029b85045b68181585d2833e84879b9709143e1f593f000000161028086015184099250826101c08601525050505050565b81518152602082015160208201525050565b6040518151815260208201516020820152825160408201526020830151606082015260408260808360066107d05a03fa80610d0a576000805260206000f35b50505050565b6000604051835181526020840151602082015284604082015260408160608360076107d05a03fa915081610d48576000805260206000f35b825160408201526020830151606082015260408360808360066107d05a03fa915081610d78576000805260206000f35b5050505050565b600060405183815284602082015285604082015260408160608360076107d05a03fa915081610db2576000805260206000f35b825160408201526020830151606082015260408360808360066107d05a03fa915081610de2576000805260206000f35b505050505050565b600060405183815284602082015285604082015260408360608360076107d05a03fa915081610e1d576000805260206000f35b505050505050565b6101e08201610e386101e0830182610cb9565b610e4c610180840151610220840183610d10565b505050565b60008061022084017f30644e72e131a029b85045b68181585d2833e84879b9709143e1f593f000000160c0860151610260860151099250610ed4837f27f474a94c9c884d5b33f776f06363f4bf57cf7b4be08151fd391cf5eab3aac57f2dbc313177c3f72d59fe47dc8fc6e0aaad91138384f7c7c6034305777cce8ce684610dea565b7f30644e72e131a029b85045b68181585d2833e84879b9709143e1f593f000000161028085015184099250610f0c8360008084610d7f565b7f30644e72e131a029b85045b68181585d2833e84879b9709143e1f593f000000160c0860151610280860151099250610f488360008084610d7f565b7f30644e72e131a029b85045b68181585d2833e84879b9709143e1f593f000000160c08601516102a0860151099250610f848360008084610d7f565b60c08501519250610fd7837f147e52ce700b3d60b038cb1c5ecbebe676317b34b05e3e0af1cc5cfdb7f7f3b27f01f3a86cf54ec9bbf5ed0a6ef1984803b9d9b4afbfc849616514fa66a1d6f71d84610d7f565b7f30644e72e131a029b85045b68181585d2833e84879b9709143e1f593f000000160a08601516102608601510892507f30644e72e131a029b85045b68181585d2833e84879b9709143e1f593f00000016040860151840892507f30644e72e131a029b85045b68181585d2833e84879b9709143e1f593f000000160a086015160020991507f30644e72e131a029b85045b68181585d2833e84879b9709143e1f593f0000001610280850151830891507f30644e72e131a029b85045b68181585d2833e84879b9709143e1f593f00000016040860151830891507f30644e72e131a029b85045b68181585d2833e84879b9709143e1f593f000000182840992507f30644e72e131a029b85045b68181585d2833e84879b9709143e1f593f000000160a086015160030991507f30644e72e131a029b85045b68181585d2833e84879b9709143e1f593f00000016102a0850151830891507f30644e72e131a029b85045b68181585d2833e84879b9709143e1f593f00000016040860151830891507f30644e72e131a029b85045b68181585d2833e84879b9709143e1f593f000000182840992507f30644e72e131a029b85045b68181585d2833e84879b9709143e1f593f00000016000860151840992507f30644e72e131a029b85045b68181585d2833e84879b9709143e1f593f000000160c0860151840992507f30644e72e131a029b85045b68181585d2833e84879b9709143e1f593f000000160008601516102a08701510991507f30644e72e131a029b85045b68181585d2833e84879b9709143e1f593f00000016000860151830991507f30644e72e131a029b85045b68181585d2833e84879b9709143e1f593f000000160c0860151830991507f30644e72e131a029b85045b68181585d2833e84879b9709143e1f593f000000182840892507f30644e72e131a029b85045b68181585d2833e84879b9709143e1f593f0000001610180860151840892506112b28360e0860183610d10565b7f30644e72e131a029b85045b68181585d2833e84879b9709143e1f593f00000016102c085015160208701510992507f30644e72e131a029b85045b68181585d2833e84879b9709143e1f593f0000001610260850151840892507f30644e72e131a029b85045b68181585d2833e84879b9709143e1f593f00000016040860151840892507f30644e72e131a029b85045b68181585d2833e84879b9709143e1f593f00000016102e085015160208701510991507f30644e72e131a029b85045b68181585d2833e84879b9709143e1f593f0000001610280850151830891507f30644e72e131a029b85045b68181585d2833e84879b9709143e1f593f00000016040860151830891507f30644e72e131a029b85045b68181585d2833e84879b9709143e1f593f000000182840992507f30644e72e131a029b85045b68181585d2833e84879b9709143e1f593f00000016000860151840992507f30644e72e131a029b85045b68181585d2833e84879b9709143e1f593f000000160c0860151840992507f30644e72e131a029b85045b68181585d2833e84879b9709143e1f593f00000016020860151840992507f30644e72e131a029b85045b68181585d2833e84879b9709143e1f593f0000001610300850151840992507f30644e72e131a029b85045b68181585d2833e84879b9709143e1f593f0000001837f30644e72e131a029b85045b68181585d2833e84879b9709143e1f593f00000010306925061151c837f1e37e23a612681a75aff76bf8c83c5162c862d51a12bd710c905146f93c6cd877f2f7d495f9ff48e416dcd89fc7702d4c2a24b3a40da8bd7fef75f8c104e09b9ae84610d7f565b61152a610120850182610ccb565b6080850151925061154083610160860183610d10565b7f30644e72e131a029b85045b68181585d2833e84879b9709143e1f593f00000018384099250611575836101a0860183610d10565b61158760e08601516020860183610d10565b61159a6101008601516060860183610d10565b6115ad61012086015160a0860183610d10565b6115fe6101408601517f057fbbf6633d201a0b5f524b0d4dea4abf1736c1d75dc5cb7285124808ed4b3f7f1862004d4e5baa3d8eeb67d09447c1eca0e514287200d00b1932b1f198b9c2e284610d7f565b61164f6101608601517f2234839cdcfe18c3b0fee010c1b2576e08f5cffa75cec983476110db0294d0c27f2687b174a52af0652bbe5a7457c6c5a6283373b4fc2052343efe1aa26a3c4ce984610d7f565b6101c085015192507f30644e72e131a029b85045b68181585d2833e84879b9709143e1f593f00000018060c087015161032087015109840892507f30644e72e131a029b85045b68181585d2833e84879b9709143e1f593f00000018060e087015161026087015109840892507f30644e72e131a029b85045b68181585d2833e84879b9709143e1f593f00000018061010087015161028087015109840892507f30644e72e131a029b85045b68181585d2833e84879b9709143e1f593f0000001806101208701516102a087015109840892507f30644e72e131a029b85045b68181585d2833e84879b9709143e1f593f0000001806101408701516102c087015109840892507f30644e72e131a029b85045b68181585d2833e84879b9709143e1f593f0000001806101608701516102e087015109840892507f30644e72e131a029b85045b68181585d2833e84879b9709143e1f593f00000018061018087015161030087015109840892507f30644e72e131a029b85045b68181585d2833e84879b9709143e1f593f0000001837f30644e72e131a029b85045b68181585d2833e84879b9709143e1f593f00000010306925061180f836002600184610d7f565b60608501519250611825836101e0860183610d10565b7f30644e72e131a029b85045b68181585d2833e84879b9709143e1f593f000000160608601516101808701510992507f30644e72e131a029b85045b68181585d2833e84879b9709143e1f593f00000017f2b337de1c8c14f22ec9b9e2f96afef3652627366f8170a0a948dad4ac1bd5e80840992506118a983610220860183610d10565b5050505050565b60006040516101e0830151815260206101e08401015160208201527f0f7b4b6123a41925730d9abe1d8da70d3f8e343459c127f794af93d83bec209660408201527f048efae944d40e8e44aa0d37af2407fe1d91d54da49325b357030dce9259d35a60608201527f152211dd7ec648ecc83e45b28fcdc3941739ac3d1cd4f658de528be93fbe81dc60808201527f173b0567c13662077023f623d5650581146441a5ab0194846bb9cb9bb0cceb3560a082015261022083015160c08201526020610220840101517f30644e72e131a029b85045b68181585d97816a916871ca8d3c208c16d87cfd47817f30644e72e131a029b85045b68181585d97816a916871ca8d3c208c16d87cfd47030690508060e08301527f198e9393920d483a7260bfb731fb5d25f1aa493335a9e71297e485b7aef312c26101008301527f1800deef121f1e76426a00665e5c4479674322d4f75edadd46debd5cd992f6ed6101208301527f090689d0585ff075ec9e99ad690c3395bc4b313370b38ef355acdadcd122975b6101408301527f12c85ea5db8c6deb4aab71808dcb408fe3d1e7690c43d37b4ce6cc0166fa7daa6101608301526020826101808460086107d05a03fa825181169350505050919050565b6040516103008101604052611a9184610206565b611a9c83828661027f565b611aa5816105d4565b611aaf838261089e565b611ab981856109ab565b611ac38185610e25565b611acd8185610e51565b611ad6816118b0565b61030082036040528060005260206000f35b6000604051905090565b600080fd5b600080fd5b600080fd5b600080fd5b6000601f19601f8301169050919050565b7f4e487b7100000000000000000000000000000000000000000000000000000000600052604160045260246000fd5b611b4f82611b06565b810181811067ffffffffffffffff82111715611b6e57611b6d611b17565b5b80604052505050565b6000611b81611ae8565b9050611b8d8282611b46565b919050565b600067ffffffffffffffff821115611bad57611bac611b17565b5b611bb682611b06565b9050602081019050919050565b82818337600083830152505050565b6000611be5611be084611b92565b611b77565b905082815260208101848484011115611c0157611c00611b01565b5b611c0c848285611bc3565b509392505050565b600082601f830112611c2957611c28611afc565b5b8135611c39848260208601611bd2565b91505092915050565b600067ffffffffffffffff821115611c5d57611c5c611b17565b5b602082029050602081019050919050565b600080fd5b6000819050919050565b611c8681611c73565b8114611c9157600080fd5b50565b600081359050611ca381611c7d565b92915050565b6000611cbc611cb784611c42565b611b77565b90508083825260208201905060208402830185811115611cdf57611cde611c6e565b5b835b81811015611d085780611cf48882611c94565b845260208401935050602081019050611ce1565b5050509392505050565b600082601f830112611d2757611d26611afc565b5b8135611d37848260208601611ca9565b91505092915050565b60008060408385031215611d5757611d56611af2565b5b600083013567ffffffffffffffff811115611d7557611d74611af7565b5b611d8185828601611c14565b925050602083013567ffffffffffffffff811115611da257611da1611af7565b5b611dae85828601611d12565b9150509250929050565b60008115159050919050565b611dcd81611db8565b82525050565b6000602082019050611de86000830184611dc4565b9291505056fea264697066735822122077b1e069e74898037df929be4f492215397cba021a075a89bf6b561689a2e55264736f6c63430008180033",
  "linkReferences": {},
  "deployedLinkReferences": {}
}